{
    "_format": "hh-sol-artifact-1",
    "contractName": "MightyMorphs",
    "sourceName": "contracts/MightyMorphs.sol",
    "abi": [
        {
            "inputs": [],
            "stateMutability": "nonpayable",
            "type": "constructor"
        },
        {
            "anonymous": false,
            "inputs": [
                {
                    "indexed": true,
                    "internalType": "address",
                    "name": "owner",
                    "type": "address"
                },
                {
                    "indexed": true,
                    "internalType": "address",
                    "name": "approved",
                    "type": "address"
                },
                {
                    "indexed": true,
                    "internalType": "uint256",
                    "name": "tokenId",
                    "type": "uint256"
                }
            ],
            "name": "Approval",
            "type": "event"
        },
        {
            "anonymous": false,
            "inputs": [
                {
                    "indexed": true,
                    "internalType": "address",
                    "name": "owner",
                    "type": "address"
                },
                {
                    "indexed": true,
                    "internalType": "address",
                    "name": "operator",
                    "type": "address"
                },
                {
                    "indexed": false,
                    "internalType": "bool",
                    "name": "approved",
                    "type": "bool"
                }
            ],
            "name": "ApprovalForAll",
            "type": "event"
        },
        {
            "anonymous": false,
            "inputs": [
                {
                    "indexed": false,
                    "internalType": "address",
                    "name": "sender",
                    "type": "address"
                },
                {
                    "indexed": false,
                    "internalType": "uint256",
                    "name": "tokenId",
                    "type": "uint256"
                }
            ],
            "name": "NewMightyMorphMinted",
            "type": "event"
        },
        {
            "anonymous": false,
            "inputs": [
                {
                    "indexed": true,
                    "internalType": "address",
                    "name": "previousOwner",
                    "type": "address"
                },
                {
                    "indexed": true,
                    "internalType": "address",
                    "name": "newOwner",
                    "type": "address"
                }
            ],
            "name": "OwnershipTransferred",
            "type": "event"
        },
        {
            "anonymous": false,
            "inputs": [
                {
                    "indexed": true,
                    "internalType": "address",
                    "name": "from",
                    "type": "address"
                },
                {
                    "indexed": true,
                    "internalType": "address",
                    "name": "to",
                    "type": "address"
                },
                {
                    "indexed": true,
                    "internalType": "uint256",
                    "name": "tokenId",
                    "type": "uint256"
                }
            ],
            "name": "Transfer",
            "type": "event"
        },
        {
            "inputs": [],
            "name": "PRICE",
            "outputs": [
                {
                    "internalType": "uint256",
                    "name": "",
                    "type": "uint256"
                }
            ],
            "stateMutability": "view",
            "type": "function"
        },
        {
            "inputs": [
                {
                    "internalType": "address",
                    "name": "to",
                    "type": "address"
                },
                {
                    "internalType": "uint256",
                    "name": "tokenId",
                    "type": "uint256"
                }
            ],
            "name": "approve",
            "outputs": [],
            "stateMutability": "nonpayable",
            "type": "function"
        },
        {
            "inputs": [
                {
                    "internalType": "address",
                    "name": "owner",
                    "type": "address"
                }
            ],
            "name": "balanceOf",
            "outputs": [
                {
                    "internalType": "uint256",
                    "name": "",
                    "type": "uint256"
                }
            ],
            "stateMutability": "view",
            "type": "function"
        },
        {
            "inputs": [
                {
                    "internalType": "uint256",
                    "name": "tokenId",
                    "type": "uint256"
                }
            ],
            "name": "getApproved",
            "outputs": [
                {
                    "internalType": "address",
                    "name": "",
                    "type": "address"
                }
            ],
            "stateMutability": "view",
            "type": "function"
        },
        {
            "inputs": [
                {
                    "internalType": "address",
                    "name": "owner",
                    "type": "address"
                },
                {
                    "internalType": "address",
                    "name": "operator",
                    "type": "address"
                }
            ],
            "name": "isApprovedForAll",
            "outputs": [
                {
                    "internalType": "bool",
                    "name": "",
                    "type": "bool"
                }
            ],
            "stateMutability": "view",
            "type": "function"
        },
        {
            "inputs": [],
            "name": "mint",
            "outputs": [],
            "stateMutability": "payable",
            "type": "function"
        },
        {
            "inputs": [],
            "name": "name",
            "outputs": [
                {
                    "internalType": "string",
                    "name": "",
                    "type": "string"
                }
            ],
            "stateMutability": "view",
            "type": "function"
        },
        {
            "inputs": [],
            "name": "owner",
            "outputs": [
                {
                    "internalType": "address",
                    "name": "",
                    "type": "address"
                }
            ],
            "stateMutability": "view",
            "type": "function"
        },
        {
            "inputs": [
                {
                    "internalType": "uint256",
                    "name": "tokenId",
                    "type": "uint256"
                }
            ],
            "name": "ownerOf",
            "outputs": [
                {
                    "internalType": "address",
                    "name": "",
                    "type": "address"
                }
            ],
            "stateMutability": "view",
            "type": "function"
        },
        {
            "inputs": [],
            "name": "renounceOwnership",
            "outputs": [],
            "stateMutability": "nonpayable",
            "type": "function"
        },
        {
            "inputs": [
                {
                    "internalType": "address",
                    "name": "from",
                    "type": "address"
                },
                {
                    "internalType": "address",
                    "name": "to",
                    "type": "address"
                },
                {
                    "internalType": "uint256",
                    "name": "tokenId",
                    "type": "uint256"
                }
            ],
            "name": "safeTransferFrom",
            "outputs": [],
            "stateMutability": "nonpayable",
            "type": "function"
        },
        {
            "inputs": [
                {
                    "internalType": "address",
                    "name": "from",
                    "type": "address"
                },
                {
                    "internalType": "address",
                    "name": "to",
                    "type": "address"
                },
                {
                    "internalType": "uint256",
                    "name": "tokenId",
                    "type": "uint256"
                },
                {
                    "internalType": "bytes",
                    "name": "_data",
                    "type": "bytes"
                }
            ],
            "name": "safeTransferFrom",
            "outputs": [],
            "stateMutability": "nonpayable",
            "type": "function"
        },
        {
            "inputs": [
                {
                    "internalType": "address",
                    "name": "operator",
                    "type": "address"
                },
                {
                    "internalType": "bool",
                    "name": "approved",
                    "type": "bool"
                }
            ],
            "name": "setApprovalForAll",
            "outputs": [],
            "stateMutability": "nonpayable",
            "type": "function"
        },
        {
            "inputs": [
                {
                    "internalType": "bytes4",
                    "name": "interfaceId",
                    "type": "bytes4"
                }
            ],
            "name": "supportsInterface",
            "outputs": [
                {
                    "internalType": "bool",
                    "name": "",
                    "type": "bool"
                }
            ],
            "stateMutability": "view",
            "type": "function"
        },
        {
            "inputs": [],
            "name": "symbol",
            "outputs": [
                {
                    "internalType": "string",
                    "name": "",
                    "type": "string"
                }
            ],
            "stateMutability": "view",
            "type": "function"
        },
        {
            "inputs": [
                {
                    "internalType": "uint256",
                    "name": "tokenId",
                    "type": "uint256"
                }
            ],
            "name": "tokenURI",
            "outputs": [
                {
                    "internalType": "string",
                    "name": "",
                    "type": "string"
                }
            ],
            "stateMutability": "view",
            "type": "function"
        },
        {
            "inputs": [
                {
                    "internalType": "address",
                    "name": "from",
                    "type": "address"
                },
                {
                    "internalType": "address",
                    "name": "to",
                    "type": "address"
                },
                {
                    "internalType": "uint256",
                    "name": "tokenId",
                    "type": "uint256"
                }
            ],
            "name": "transferFrom",
            "outputs": [],
            "stateMutability": "nonpayable",
            "type": "function"
        },
        {
            "inputs": [
                {
                    "internalType": "address",
                    "name": "newOwner",
                    "type": "address"
                }
            ],
            "name": "transferOwnership",
            "outputs": [],
            "stateMutability": "nonpayable",
            "type": "function"
        },
        {
            "inputs": [],
            "name": "withdraw",
            "outputs": [],
            "stateMutability": "payable",
            "type": "function"
        }
    ],
    "bytecode": "0x60806040523480156200001157600080fd5b506040518060400160405280600c81526020017f4d69676874794d6f7270687300000000000000000000000000000000000000008152506040518060400160405280600681526020017f4d4f525048530000000000000000000000000000000000000000000000000000815250816000908051906020019062000096929190620001ae565b508060019080519060200190620000af929190620001ae565b505050620000d2620000c6620000e060201b60201c565b620000e860201b60201c565b6001600881905550620002c3565b600033905090565b6000600760009054906101000a900473ffffffffffffffffffffffffffffffffffffffff16905081600760006101000a81548173ffffffffffffffffffffffffffffffffffffffff021916908373ffffffffffffffffffffffffffffffffffffffff1602179055508173ffffffffffffffffffffffffffffffffffffffff168173ffffffffffffffffffffffffffffffffffffffff167f8be0079c531659141344cd1fd0a4f28419497f9722a3daafe3b4186f6b6457e060405160405180910390a35050565b828054620001bc906200025e565b90600052602060002090601f016020900481019282620001e057600085556200022c565b82601f10620001fb57805160ff19168380011785556200022c565b828001600101855582156200022c579182015b828111156200022b5782518255916020019190600101906200020e565b5b5090506200023b91906200023f565b5090565b5b808211156200025a57600081600090555060010162000240565b5090565b600060028204905060018216806200027757607f821691505b602082108114156200028e576200028d62000294565b5b50919050565b7f4e487b7100000000000000000000000000000000000000000000000000000000600052602260045260246000fd5b613cb480620002d36000396000f3fe6080604052600436106101145760003560e01c806370a08231116100a0578063a22cb46511610064578063a22cb4651461035f578063b88d4fde14610388578063c87b56dd146103b1578063e985e9c5146103ee578063f2fde38b1461042b57610114565b806370a082311461028a578063715018a6146102c75780638d859f3e146102de5780638da5cb5b1461030957806395d89b411461033457610114565b80631249c58b116100e75780631249c58b146101e757806323b872dd146101f15780633ccfd60b1461021a57806342842e0e146102245780636352211e1461024d57610114565b806301ffc9a71461011957806306fdde0314610156578063081812fc14610181578063095ea7b3146101be575b600080fd5b34801561012557600080fd5b50610140600480360381019061013b9190612720565b610454565b60405161014d9190612da8565b60405180910390f35b34801561016257600080fd5b5061016b610536565b6040516101789190612dc3565b60405180910390f35b34801561018d57600080fd5b506101a860048036038101906101a39190612772565b6105c8565b6040516101b59190612d18565b60405180910390f35b3480156101ca57600080fd5b506101e560048036038101906101e091906126e4565b61064d565b005b6101ef610765565b005b3480156101fd57600080fd5b50610218600480360381019061021391906125de565b6108c4565b005b610222610924565b005b34801561023057600080fd5b5061024b600480360381019061024691906125de565b610a98565b005b34801561025957600080fd5b50610274600480360381019061026f9190612772565b610ab8565b6040516102819190612d18565b60405180910390f35b34801561029657600080fd5b506102b160048036038101906102ac9190612579565b610b6a565b6040516102be91906130a5565b60405180910390f35b3480156102d357600080fd5b506102dc610c22565b005b3480156102ea57600080fd5b506102f3610caa565b60405161030091906130a5565b60405180910390f35b34801561031557600080fd5b5061031e610cb6565b60405161032b9190612d18565b60405180910390f35b34801561034057600080fd5b50610349610ce0565b6040516103569190612dc3565b60405180910390f35b34801561036b57600080fd5b50610386600480360381019061038191906126a8565b610d72565b005b34801561039457600080fd5b506103af60048036038101906103aa919061262d565b610d88565b005b3480156103bd57600080fd5b506103d860048036038101906103d39190612772565b610dea565b6040516103e59190612dc3565b60405180910390f35b3480156103fa57600080fd5b50610415600480360381019061041091906125a2565b610f3c565b6040516104229190612da8565b60405180910390f35b34801561043757600080fd5b50610452600480360381019061044d9190612579565b610fd0565b005b60007f80ac58cd000000000000000000000000000000000000000000000000000000007bffffffffffffffffffffffffffffffffffffffffffffffffffffffff1916827bffffffffffffffffffffffffffffffffffffffffffffffffffffffff1916148061051f57507f5b5e139f000000000000000000000000000000000000000000000000000000007bffffffffffffffffffffffffffffffffffffffffffffffffffffffff1916827bffffffffffffffffffffffffffffffffffffffffffffffffffffffff1916145b8061052f575061052e826110c8565b5b9050919050565b60606000805461054590613359565b80601f016020809104026020016040519081016040528092919081815260200182805461057190613359565b80156105be5780601f10610593576101008083540402835291602001916105be565b820191906000526020600020905b8154815290600101906020018083116105a157829003601f168201915b5050505050905090565b60006105d382611132565b610612576040517f08c379a000000000000000000000000000000000000000000000000000000000815260040161060990612fc5565b60405180910390fd5b6004600083815260200190815260200160002060009054906101000a900473ffffffffffffffffffffffffffffffffffffffff169050919050565b600061065882610ab8565b90508073ffffffffffffffffffffffffffffffffffffffff168373ffffffffffffffffffffffffffffffffffffffff1614156106c9576040517f08c379a00000000000000000000000000000000000000000000000000000000081526004016106c090613025565b60405180910390fd5b8073ffffffffffffffffffffffffffffffffffffffff166106e861119e565b73ffffffffffffffffffffffffffffffffffffffff16148061071757506107168161071161119e565b610f3c565b5b610756576040517f08c379a000000000000000000000000000000000000000000000000000000000815260040161074d90612ee5565b60405180910390fd5b61076083836111a6565b505050565b6000610771600961125f565b905067016345785d8a00003410156107be576040517f08c379a00000000000000000000000000000000000000000000000000000000081526004016107b590613085565b60405180910390fd5b600061081e6107d86001846107d39190613164565b61126d565b6107f93373ffffffffffffffffffffffffffffffffffffffff16601461141a565b60405160200161080a929190612c86565b604051602081830303815290604052611714565b90506000816040516020016108339190612ce1565b604051602081830303815290604052905061085a336001856108559190613164565b6118d2565b61087060018461086a9190613164565b826118f0565b61087a6009611964565b7fed0e2cb4eac9c7415b1a0d03e760abb4fbefe1728f28be7fe69f1c18df5a2a46336001856108a99190613164565b6040516108b7929190612d7f565b60405180910390a1505050565b6108d56108cf61119e565b8261197a565b610914576040517f08c379a000000000000000000000000000000000000000000000000000000000815260040161090b90613065565b60405180910390fd5b61091f838383611a58565b505050565b61092c61119e565b73ffffffffffffffffffffffffffffffffffffffff1661094a610cb6565b73ffffffffffffffffffffffffffffffffffffffff16146109a0576040517f08c379a000000000000000000000000000000000000000000000000000000000815260040161099790612fe5565b60405180910390fd5b6000479050600081116109e8576040517f08c379a00000000000000000000000000000000000000000000000000000000081526004016109df90612f85565b60405180910390fd5b60003373ffffffffffffffffffffffffffffffffffffffff1682604051610a0e90612d03565b60006040518083038185875af1925050503d8060008114610a4b576040519150601f19603f3d011682016040523d82523d6000602084013e610a50565b606091505b5050905080610a94576040517f08c379a0000000000000000000000000000000000000000000000000000000008152600401610a8b90613045565b60405180910390fd5b5050565b610ab383838360405180602001604052806000815250610d88565b505050565b6000806002600084815260200190815260200160002060009054906101000a900473ffffffffffffffffffffffffffffffffffffffff169050600073ffffffffffffffffffffffffffffffffffffffff168173ffffffffffffffffffffffffffffffffffffffff161415610b61576040517f08c379a0000000000000000000000000000000000000000000000000000000008152600401610b5890612f25565b60405180910390fd5b80915050919050565b60008073ffffffffffffffffffffffffffffffffffffffff168273ffffffffffffffffffffffffffffffffffffffff161415610bdb576040517f08c379a0000000000000000000000000000000000000000000000000000000008152600401610bd290612f05565b60405180910390fd5b600360008373ffffffffffffffffffffffffffffffffffffffff1673ffffffffffffffffffffffffffffffffffffffff168152602001908152602001600020549050919050565b610c2a61119e565b73ffffffffffffffffffffffffffffffffffffffff16610c48610cb6565b73ffffffffffffffffffffffffffffffffffffffff1614610c9e576040517f08c379a0000000000000000000000000000000000000000000000000000000008152600401610c9590612fe5565b60405180910390fd5b610ca86000611cbf565b565b67016345785d8a000081565b6000600760009054906101000a900473ffffffffffffffffffffffffffffffffffffffff16905090565b606060018054610cef90613359565b80601f0160208091040260200160405190810160405280929190818152602001828054610d1b90613359565b8015610d685780601f10610d3d57610100808354040283529160200191610d68565b820191906000526020600020905b815481529060010190602001808311610d4b57829003601f168201915b5050505050905090565b610d84610d7d61119e565b8383611d85565b5050565b610d99610d9361119e565b8361197a565b610dd8576040517f08c379a0000000000000000000000000000000000000000000000000000000008152600401610dcf90613065565b60405180910390fd5b610de484848484611ef2565b50505050565b6060610df582611132565b610e34576040517f08c379a0000000000000000000000000000000000000000000000000000000008152600401610e2b90612fa5565b60405180910390fd5b6000600660008481526020019081526020016000208054610e5490613359565b80601f0160208091040260200160405190810160405280929190818152602001828054610e8090613359565b8015610ecd5780601f10610ea257610100808354040283529160200191610ecd565b820191906000526020600020905b815481529060010190602001808311610eb057829003601f168201915b505050505090506000610ede611f4e565b9050600081511415610ef4578192505050610f37565b600082511115610f29578082604051602001610f11929190612c62565b60405160208183030381529060405292505050610f37565b610f3284611f65565b925050505b919050565b6000600560008473ffffffffffffffffffffffffffffffffffffffff1673ffffffffffffffffffffffffffffffffffffffff16815260200190815260200160002060008373ffffffffffffffffffffffffffffffffffffffff1673ffffffffffffffffffffffffffffffffffffffff16815260200190815260200160002060009054906101000a900460ff16905092915050565b610fd861119e565b73ffffffffffffffffffffffffffffffffffffffff16610ff6610cb6565b73ffffffffffffffffffffffffffffffffffffffff161461104c576040517f08c379a000000000000000000000000000000000000000000000000000000000815260040161104390612fe5565b60405180910390fd5b600073ffffffffffffffffffffffffffffffffffffffff168173ffffffffffffffffffffffffffffffffffffffff1614156110bc576040517f08c379a00000000000000000000000000000000000000000000000000000000081526004016110b390612e25565b60405180910390fd5b6110c581611cbf565b50565b60007f01ffc9a7000000000000000000000000000000000000000000000000000000007bffffffffffffffffffffffffffffffffffffffffffffffffffffffff1916827bffffffffffffffffffffffffffffffffffffffffffffffffffffffff1916149050919050565b60008073ffffffffffffffffffffffffffffffffffffffff166002600084815260200190815260200160002060009054906101000a900473ffffffffffffffffffffffffffffffffffffffff1673ffffffffffffffffffffffffffffffffffffffff1614159050919050565b600033905090565b816004600083815260200190815260200160002060006101000a81548173ffffffffffffffffffffffffffffffffffffffff021916908373ffffffffffffffffffffffffffffffffffffffff160217905550808273ffffffffffffffffffffffffffffffffffffffff1661121983610ab8565b73ffffffffffffffffffffffffffffffffffffffff167f8c5be1e5ebec7d5bd14f71427d1e84f3dd0314c0f7b2291e5b200ac8c7c3b92560405160405180910390a45050565b600081600001549050919050565b606060008214156112b5576040518060400160405280600181526020017f30000000000000000000000000000000000000000000000000000000000000008152509050611415565b600082905060005b600082146112e75780806112d0906133bc565b915050600a826112e091906131ba565b91506112bd565b60008167ffffffffffffffff811115611329577f4e487b7100000000000000000000000000000000000000000000000000000000600052604160045260246000fd5b6040519080825280601f01601f19166020018201604052801561135b5781602001600182028036833780820191505090505b5090505b6000851461140e576001826113749190613245565b9150600a856113839190613405565b603061138f9190613164565b60f81b8183815181106113cb577f4e487b7100000000000000000000000000000000000000000000000000000000600052603260045260246000fd5b60200101907effffffffffffffffffffffffffffffffffffffffffffffffffffffffffffff1916908160001a905350600a8561140791906131ba565b945061135f565b8093505050505b919050565b60606000600283600261142d91906131eb565b6114379190613164565b67ffffffffffffffff811115611476577f4e487b7100000000000000000000000000000000000000000000000000000000600052604160045260246000fd5b6040519080825280601f01601f1916602001820160405280156114a85781602001600182028036833780820191505090505b5090507f300000000000000000000000000000000000000000000000000000000000000081600081518110611506577f4e487b7100000000000000000000000000000000000000000000000000000000600052603260045260246000fd5b60200101907effffffffffffffffffffffffffffffffffffffffffffffffffffffffffffff1916908160001a9053507f780000000000000000000000000000000000000000000000000000000000000081600181518110611590577f4e487b7100000000000000000000000000000000000000000000000000000000600052603260045260246000fd5b60200101907effffffffffffffffffffffffffffffffffffffffffffffffffffffffffffff1916908160001a905350600060018460026115d091906131eb565b6115da9190613164565b90505b60018111156116c6577f3031323334353637383961626364656600000000000000000000000000000000600f861660108110611642577f4e487b7100000000000000000000000000000000000000000000000000000000600052603260045260246000fd5b1a60f81b82828151811061167f577f4e487b7100000000000000000000000000000000000000000000000000000000600052603260045260246000fd5b60200101907effffffffffffffffffffffffffffffffffffffffffffffffffffffffffffff1916908160001a905350600485901c9450806116bf9061332f565b90506115dd565b506000841461170a576040517f08c379a000000000000000000000000000000000000000000000000000000000815260040161170190612de5565b60405180910390fd5b8091505092915050565b6060600082519050600081141561173d57604051806020016040528060008152509150506118cd565b6000600360028361174e9190613164565b61175891906131ba565b600461176491906131eb565b905060006020826117759190613164565b67ffffffffffffffff8111156117b4577f4e487b7100000000000000000000000000000000000000000000000000000000600052604160045260246000fd5b6040519080825280601f01601f1916602001820160405280156117e65781602001600182028036833780820191505090505b5090506000604051806060016040528060408152602001613c3f604091399050600181016020830160005b8681101561188a5760038101905062ffffff818a015116603f8160121c168401518060081b905060ff603f83600c1c1686015116810190508060081b905060ff603f8360061c1686015116810190508060081b905060ff603f831686015116810190508060e01b90508084526004840193505050611811565b5060038606600181146118a457600281146118b4576118bf565b613d3d60f01b60028303526118bf565b603d60f81b60018303525b508484525050819450505050505b919050565b6118ec82826040518060200160405280600081525061200c565b5050565b6118f982611132565b611938576040517f08c379a000000000000000000000000000000000000000000000000000000000815260040161192f90612f45565b60405180910390fd5b8060066000848152602001908152602001600020908051906020019061195f929190612405565b505050565b6001816000016000828254019250508190555050565b600061198582611132565b6119c4576040517f08c379a00000000000000000000000000000000000000000000000000000000081526004016119bb90612ec5565b60405180910390fd5b60006119cf83610ab8565b90508073ffffffffffffffffffffffffffffffffffffffff168473ffffffffffffffffffffffffffffffffffffffff161480611a3e57508373ffffffffffffffffffffffffffffffffffffffff16611a26846105c8565b73ffffffffffffffffffffffffffffffffffffffff16145b80611a4f5750611a4e8185610f3c565b5b91505092915050565b8273ffffffffffffffffffffffffffffffffffffffff16611a7882610ab8565b73ffffffffffffffffffffffffffffffffffffffff1614611ace576040517f08c379a0000000000000000000000000000000000000000000000000000000008152600401611ac590612e45565b60405180910390fd5b600073ffffffffffffffffffffffffffffffffffffffff168273ffffffffffffffffffffffffffffffffffffffff161415611b3e576040517f08c379a0000000000000000000000000000000000000000000000000000000008152600401611b3590612e85565b60405180910390fd5b611b49838383612067565b611b546000826111a6565b6001600360008573ffffffffffffffffffffffffffffffffffffffff1673ffffffffffffffffffffffffffffffffffffffff1681526020019081526020016000206000828254611ba49190613245565b925050819055506001600360008473ffffffffffffffffffffffffffffffffffffffff1673ffffffffffffffffffffffffffffffffffffffff1681526020019081526020016000206000828254611bfb9190613164565b92505081905550816002600083815260200190815260200160002060006101000a81548173ffffffffffffffffffffffffffffffffffffffff021916908373ffffffffffffffffffffffffffffffffffffffff160217905550808273ffffffffffffffffffffffffffffffffffffffff168473ffffffffffffffffffffffffffffffffffffffff167fddf252ad1be2c89b69c2b068fc378daa952ba7f163c4a11628f55a4df523b3ef60405160405180910390a4611cba83838361206c565b505050565b6000600760009054906101000a900473ffffffffffffffffffffffffffffffffffffffff16905081600760006101000a81548173ffffffffffffffffffffffffffffffffffffffff021916908373ffffffffffffffffffffffffffffffffffffffff1602179055508173ffffffffffffffffffffffffffffffffffffffff168173ffffffffffffffffffffffffffffffffffffffff167f8be0079c531659141344cd1fd0a4f28419497f9722a3daafe3b4186f6b6457e060405160405180910390a35050565b8173ffffffffffffffffffffffffffffffffffffffff168373ffffffffffffffffffffffffffffffffffffffff161415611df4576040517f08c379a0000000000000000000000000000000000000000000000000000000008152600401611deb90612ea5565b60405180910390fd5b80600560008573ffffffffffffffffffffffffffffffffffffffff1673ffffffffffffffffffffffffffffffffffffffff16815260200190815260200160002060008473ffffffffffffffffffffffffffffffffffffffff1673ffffffffffffffffffffffffffffffffffffffff16815260200190815260200160002060006101000a81548160ff0219169083151502179055508173ffffffffffffffffffffffffffffffffffffffff168373ffffffffffffffffffffffffffffffffffffffff167f17307eab39ab6107e8899845ad3d59bd9653f200f220920489ca2b5937696c3183604051611ee59190612da8565b60405180910390a3505050565b611efd848484611a58565b611f0984848484612071565b611f48576040517f08c379a0000000000000000000000000000000000000000000000000000000008152600401611f3f90612e05565b60405180910390fd5b50505050565b606060405180602001604052806000815250905090565b6060611f7082611132565b611faf576040517f08c379a0000000000000000000000000000000000000000000000000000000008152600401611fa690613005565b60405180910390fd5b6000611fb9611f4e565b90506000815111611fd95760405180602001604052806000815250612004565b80611fe38461126d565b604051602001611ff4929190612c62565b6040516020818303038152906040525b915050919050565b6120168383612208565b6120236000848484612071565b612062576040517f08c379a000000000000000000000000000000000000000000000000000000000815260040161205990612e05565b60405180910390fd5b505050565b505050565b505050565b60006120928473ffffffffffffffffffffffffffffffffffffffff166123e2565b156121fb578373ffffffffffffffffffffffffffffffffffffffff1663150b7a026120bb61119e565b8786866040518563ffffffff1660e01b81526004016120dd9493929190612d33565b602060405180830381600087803b1580156120f757600080fd5b505af192505050801561212857506040513d601f19601f820116820180604052508101906121259190612749565b60015b6121ab573d8060008114612158576040519150601f19603f3d011682016040523d82523d6000602084013e61215d565b606091505b506000815114156121a3576040517f08c379a000000000000000000000000000000000000000000000000000000000815260040161219a90612e05565b60405180910390fd5b805181602001fd5b63150b7a0260e01b7bffffffffffffffffffffffffffffffffffffffffffffffffffffffff1916817bffffffffffffffffffffffffffffffffffffffffffffffffffffffff191614915050612200565b600190505b949350505050565b600073ffffffffffffffffffffffffffffffffffffffff168273ffffffffffffffffffffffffffffffffffffffff161415612278576040517f08c379a000000000000000000000000000000000000000000000000000000000815260040161226f90612f65565b60405180910390fd5b61228181611132565b156122c1576040517f08c379a00000000000000000000000000000000000000000000000000000000081526004016122b890612e65565b60405180910390fd5b6122cd60008383612067565b6001600360008473ffffffffffffffffffffffffffffffffffffffff1673ffffffffffffffffffffffffffffffffffffffff168152602001908152602001600020600082825461231d9190613164565b92505081905550816002600083815260200190815260200160002060006101000a81548173ffffffffffffffffffffffffffffffffffffffff021916908373ffffffffffffffffffffffffffffffffffffffff160217905550808273ffffffffffffffffffffffffffffffffffffffff16600073ffffffffffffffffffffffffffffffffffffffff167fddf252ad1be2c89b69c2b068fc378daa952ba7f163c4a11628f55a4df523b3ef60405160405180910390a46123de6000838361206c565b5050565b6000808273ffffffffffffffffffffffffffffffffffffffff163b119050919050565b82805461241190613359565b90600052602060002090601f016020900481019282612433576000855561247a565b82601f1061244c57805160ff191683800117855561247a565b8280016001018555821561247a579182015b8281111561247957825182559160200191906001019061245e565b5b509050612487919061248b565b5090565b5b808211156124a457600081600090555060010161248c565b5090565b60006124bb6124b6846130e5565b6130c0565b9050828152602081018484840111156124d357600080fd5b6124de8482856132ed565b509392505050565b6000813590506124f581613be2565b92915050565b60008135905061250a81613bf9565b92915050565b60008135905061251f81613c10565b92915050565b60008151905061253481613c10565b92915050565b600082601f83011261254b57600080fd5b813561255b8482602086016124a8565b91505092915050565b60008135905061257381613c27565b92915050565b60006020828403121561258b57600080fd5b6000612599848285016124e6565b91505092915050565b600080604083850312156125b557600080fd5b60006125c3858286016124e6565b92505060206125d4858286016124e6565b9150509250929050565b6000806000606084860312156125f357600080fd5b6000612601868287016124e6565b9350506020612612868287016124e6565b925050604061262386828701612564565b9150509250925092565b6000806000806080858703121561264357600080fd5b6000612651878288016124e6565b9450506020612662878288016124e6565b935050604061267387828801612564565b925050606085013567ffffffffffffffff81111561269057600080fd5b61269c8782880161253a565b91505092959194509250565b600080604083850312156126bb57600080fd5b60006126c9858286016124e6565b92505060206126da858286016124fb565b9150509250929050565b600080604083850312156126f757600080fd5b6000612705858286016124e6565b925050602061271685828601612564565b9150509250929050565b60006020828403121561273257600080fd5b600061274084828501612510565b91505092915050565b60006020828403121561275b57600080fd5b600061276984828501612525565b91505092915050565b60006020828403121561278457600080fd5b600061279284828501612564565b91505092915050565b6127a481613279565b82525050565b6127b38161328b565b82525050565b60006127c482613116565b6127ce818561312c565b93506127de8185602086016132fc565b6127e7816134f2565b840191505092915050565b60006127fd82613121565b6128078185613148565b93506128178185602086016132fc565b612820816134f2565b840191505092915050565b600061283682613121565b6128408185613159565b93506128508185602086016132fc565b80840191505092915050565b6000612869602083613148565b915061287482613503565b602082019050919050565b600061288c601383613159565b91506128978261352c565b601382019050919050565b60006128af603283613148565b91506128ba82613555565b604082019050919050565b60006128d2602683613148565b91506128dd826135a4565b604082019050919050565b60006128f5602583613148565b9150612900826135f3565b604082019050919050565b6000612918601c83613148565b915061292382613642565b602082019050919050565b600061293b602483613148565b91506129468261366b565b604082019050919050565b600061295e601983613148565b9150612969826136ba565b602082019050919050565b6000612981603083613159565b915061298c826136e3565b603082019050919050565b60006129a4601883613159565b91506129af82613732565b601882019050919050565b60006129c7602c83613148565b91506129d28261375b565b604082019050919050565b60006129ea603883613148565b91506129f5826137aa565b604082019050919050565b6000612a0d602a83613148565b9150612a18826137f9565b604082019050919050565b6000612a30602983613148565b9150612a3b82613848565b604082019050919050565b6000612a53602e83613148565b9150612a5e82613897565b604082019050919050565b6000612a76600283613159565b9150612a81826138e6565b600282019050919050565b6000612a99602083613148565b9150612aa48261390f565b602082019050919050565b6000612abc601983613148565b9150612ac782613938565b602082019050919050565b6000612adf603183613148565b9150612aea82613961565b604082019050919050565b6000612b02602c83613148565b9150612b0d826139b0565b604082019050919050565b6000612b25602083613148565b9150612b30826139ff565b602082019050919050565b6000612b48602f83613148565b9150612b5382613a28565b604082019050919050565b6000612b6b602183613148565b9150612b7682613a77565b604082019050919050565b6000612b8e601383613159565b9150612b9982613ac6565b601382019050919050565b6000612bb1601d83613159565b9150612bbc82613aef565b601d82019050919050565b6000612bd460008361313d565b9150612bdf82613b18565b600082019050919050565b6000612bf7601083613148565b9150612c0282613b1b565b602082019050919050565b6000612c1a603183613148565b9150612c2582613b44565b604082019050919050565b6000612c3d602183613148565b9150612c4882613b93565b604082019050919050565b612c5c816132e3565b82525050565b6000612c6e828561282b565b9150612c7a828461282b565b91508190509392505050565b6000612c9182612997565b9150612c9d828561282b565b9150612ca88261287f565b9150612cb382612b81565b9150612cbe82612974565b9150612cca828461282b565b9150612cd582612a69565b91508190509392505050565b6000612cec82612ba4565b9150612cf8828461282b565b915081905092915050565b6000612d0e82612bc7565b9150819050919050565b6000602082019050612d2d600083018461279b565b92915050565b6000608082019050612d48600083018761279b565b612d55602083018661279b565b612d626040830185612c53565b8181036060830152612d7481846127b9565b905095945050505050565b6000604082019050612d94600083018561279b565b612da16020830184612c53565b9392505050565b6000602082019050612dbd60008301846127aa565b92915050565b60006020820190508181036000830152612ddd81846127f2565b905092915050565b60006020820190508181036000830152612dfe8161285c565b9050919050565b60006020820190508181036000830152612e1e816128a2565b9050919050565b60006020820190508181036000830152612e3e816128c5565b9050919050565b60006020820190508181036000830152612e5e816128e8565b9050919050565b60006020820190508181036000830152612e7e8161290b565b9050919050565b60006020820190508181036000830152612e9e8161292e565b9050919050565b60006020820190508181036000830152612ebe81612951565b9050919050565b60006020820190508181036000830152612ede816129ba565b9050919050565b60006020820190508181036000830152612efe816129dd565b9050919050565b60006020820190508181036000830152612f1e81612a00565b9050919050565b60006020820190508181036000830152612f3e81612a23565b9050919050565b60006020820190508181036000830152612f5e81612a46565b9050919050565b60006020820190508181036000830152612f7e81612a8c565b9050919050565b60006020820190508181036000830152612f9e81612aaf565b9050919050565b60006020820190508181036000830152612fbe81612ad2565b9050919050565b60006020820190508181036000830152612fde81612af5565b9050919050565b60006020820190508181036000830152612ffe81612b18565b9050919050565b6000602082019050818103600083015261301e81612b3b565b9050919050565b6000602082019050818103600083015261303e81612b5e565b9050919050565b6000602082019050818103600083015261305e81612bea565b9050919050565b6000602082019050818103600083015261307e81612c0d565b9050919050565b6000602082019050818103600083015261309e81612c30565b9050919050565b60006020820190506130ba6000830184612c53565b92915050565b60006130ca6130db565b90506130d6828261338b565b919050565b6000604051905090565b600067ffffffffffffffff821115613100576130ff6134c3565b5b613109826134f2565b9050602081019050919050565b600081519050919050565b600081519050919050565b600082825260208201905092915050565b600081905092915050565b600082825260208201905092915050565b600081905092915050565b600061316f826132e3565b915061317a836132e3565b9250827fffffffffffffffffffffffffffffffffffffffffffffffffffffffffffffffff038211156131af576131ae613436565b5b828201905092915050565b60006131c5826132e3565b91506131d0836132e3565b9250826131e0576131df613465565b5b828204905092915050565b60006131f6826132e3565b9150613201836132e3565b9250817fffffffffffffffffffffffffffffffffffffffffffffffffffffffffffffffff048311821515161561323a57613239613436565b5b828202905092915050565b6000613250826132e3565b915061325b836132e3565b92508282101561326e5761326d613436565b5b828203905092915050565b6000613284826132c3565b9050919050565b60008115159050919050565b60007fffffffff0000000000000000000000000000000000000000000000000000000082169050919050565b600073ffffffffffffffffffffffffffffffffffffffff82169050919050565b6000819050919050565b82818337600083830152505050565b60005b8381101561331a5780820151818401526020810190506132ff565b83811115613329576000848401525b50505050565b600061333a826132e3565b9150600082141561334e5761334d613436565b5b600182039050919050565b6000600282049050600182168061337157607f821691505b6020821081141561338557613384613494565b5b50919050565b613394826134f2565b810181811067ffffffffffffffff821117156133b3576133b26134c3565b5b80604052505050565b60006133c7826132e3565b91507fffffffffffffffffffffffffffffffffffffffffffffffffffffffffffffffff8214156133fa576133f9613436565b5b600182019050919050565b6000613410826132e3565b915061341b836132e3565b92508261342b5761342a613465565b5b828206905092915050565b7f4e487b7100000000000000000000000000000000000000000000000000000000600052601160045260246000fd5b7f4e487b7100000000000000000000000000000000000000000000000000000000600052601260045260246000fd5b7f4e487b7100000000000000000000000000000000000000000000000000000000600052602260045260246000fd5b7f4e487b7100000000000000000000000000000000000000000000000000000000600052604160045260246000fd5b6000601f19601f8301169050919050565b7f537472696e67733a20686578206c656e67746820696e73756666696369656e74600082015250565b7f222c20226465736372697074696f6e223a202200000000000000000000000000600082015250565b7f4552433732313a207472616e7366657220746f206e6f6e20455243373231526560008201527f63656976657220696d706c656d656e7465720000000000000000000000000000602082015250565b7f4f776e61626c653a206e6577206f776e657220697320746865207a65726f206160008201527f6464726573730000000000000000000000000000000000000000000000000000602082015250565b7f4552433732313a207472616e736665722066726f6d20696e636f72726563742060008201527f6f776e6572000000000000000000000000000000000000000000000000000000602082015250565b7f4552433732313a20746f6b656e20616c7265616479206d696e74656400000000600082015250565b7f4552433732313a207472616e7366657220746f20746865207a65726f2061646460008201527f7265737300000000000000000000000000000000000000000000000000000000602082015250565b7f4552433732313a20617070726f766520746f2063616c6c657200000000000000600082015250565b7f222c2022696d616765223a202268747470733a2f2f6170692e6d69676874796d60008201527f6f727068732e636f6d2f696d6167652f00000000000000000000000000000000602082015250565b7f7b226e616d65223a20224d6967687479204d6f72706820230000000000000000600082015250565b7f4552433732313a206f70657261746f7220717565727920666f72206e6f6e657860008201527f697374656e7420746f6b656e0000000000000000000000000000000000000000602082015250565b7f4552433732313a20617070726f76652063616c6c6572206973206e6f74206f7760008201527f6e6572206e6f7220617070726f76656420666f7220616c6c0000000000000000602082015250565b7f4552433732313a2062616c616e636520717565727920666f7220746865207a6560008201527f726f206164647265737300000000000000000000000000000000000000000000602082015250565b7f4552433732313a206f776e657220717565727920666f72206e6f6e657869737460008201527f656e7420746f6b656e0000000000000000000000000000000000000000000000602082015250565b7f45524337323155524953746f726167653a2055524920736574206f66206e6f6e60008201527f6578697374656e7420746f6b656e000000000000000000000000000000000000602082015250565b7f227d000000000000000000000000000000000000000000000000000000000000600082015250565b7f4552433732313a206d696e7420746f20746865207a65726f2061646472657373600082015250565b7f4e6f206574686572206c65667420746f20776974686472617700000000000000600082015250565b7f45524337323155524953746f726167653a2055524920717565727920666f722060008201527f6e6f6e6578697374656e7420746f6b656e000000000000000000000000000000602082015250565b7f4552433732313a20617070726f76656420717565727920666f72206e6f6e657860008201527f697374656e7420746f6b656e0000000000000000000000000000000000000000602082015250565b7f4f776e61626c653a2063616c6c6572206973206e6f7420746865206f776e6572600082015250565b7f4552433732314d657461646174613a2055524920717565727920666f72206e6f60008201527f6e6578697374656e7420746f6b656e0000000000000000000000000000000000602082015250565b7f4552433732313a20617070726f76616c20746f2063757272656e74206f776e6560008201527f7200000000000000000000000000000000000000000000000000000000000000602082015250565b7f49742773204d6f727068696e272054696d652100000000000000000000000000600082015250565b7f646174613a6170706c69636174696f6e2f6a736f6e3b6261736536342c000000600082015250565b50565b7f5472616e73666572206661696c65642e00000000000000000000000000000000600082015250565b7f4552433732313a207472616e736665722063616c6c6572206973206e6f74206f60008201527f776e6572206e6f7220617070726f766564000000000000000000000000000000602082015250565b7f4e6f7420656e6f75676820657468657220746f207075726368617365204e465460008201527f2e00000000000000000000000000000000000000000000000000000000000000602082015250565b613beb81613279565b8114613bf657600080fd5b50565b613c028161328b565b8114613c0d57600080fd5b50565b613c1981613297565b8114613c2457600080fd5b50565b613c30816132e3565b8114613c3b57600080fd5b5056fe4142434445464748494a4b4c4d4e4f505152535455565758595a6162636465666768696a6b6c6d6e6f707172737475767778797a303132333435363738392b2fa26469706673582212205b136709725a972a48c7238e69f16bc6be8ce79fa5f512a453bd5754012d7c1d64736f6c63430008010033",
    "linkReferences": {},
    "deployedLinkReferences": {}
}